:020000040800F2
:10000000C80600204102000801050008F9040008A4
:10001000FD040008F10400082505000800000000A8
:1000200000000000000000000000000009050008BA
:10003000F504000800000000050500080D05000893
:100040005B0200085B0200085B0200085B0200081C
:100050005B0200085B0200085B0200085B0200080C
:100060005B0200085B0200085B0200085B020008FC
:100070005B0200085B0200085B0200085B020008EC
:100080005B0200085B0200085B0200085B020008DC
:100090005B0200085B0200085B0200085B020008CC
:1000A0005B0200085B0200085B0200085B020008BC
:1000B0005B0200085B0200085B0200085B020008AC
:1000C0005B0200085B0200085B0200085B0200089C
:1000D0005B0200085B0200085B0200085B0200088C
:1000E0005B0200085B0200085B0200085B0200087C
:1000F0005B0200085B0200085B0200085B0200086C
:100100005B0200085B0200085B0200085B0200085B
:100110005B0200085B0200085B0200085B0200084B
:100120005B0200085B0200085B0200085B0200083B
:100130005B02000800000000000000005B020008F5
:100140005B0200085B0200085B0200085B0200081B
:100150005B0200085B0200085B0200085B0200080B
:100160005B0200085B0200085B0200085B020008FB
:100170005B0200085B0200080000000000000000B5
:100180005B0200085B02000800F002F800F049F88A
:1001900014A696E8000CB244B344DA4501D100F04D
:1001A00040F8BAE80F000FA696E83000A5EB04056A
:1001B00004EB0607AAEB0704A7F101074FEA1515A0
:1001C0004FEA3414A4F10104AC4201D300F029F841
:1001D00013F0010F18BFFB1A43F0010300F001F800
:1001E000DBE718478006000090060000704700001B
:1001F0000023002400250026103A28BF78C1FBD830
:10020000520728BF30C148BF0B607047752900F006
:100210007F80002070471FB500F013FB1FBD10B595
:1002200010BD00F02AF91146FFF7F5FF00F07CF948
:1002300000F048F903B4FFF7F2FF03BC00F050F9F7
:100240000948804709480047FEE7FEE7FEE7FEE76A
:10025000FEE7FEE7FEE7FEE7FEE7FEE704480549A6
:10026000054A064B70470000110500088901000887
:10027000C8000020C8060020C8020020C8020020D4
:100280000FB41CB5074B06AA7B446946009005983D
:1002900000F0DBF80020694600F0EAF81CBC5DF8CD
:1002A00014FB0000E50100002DE9F0410E46044674
:1002B000002020622046E168884730B3252805D019
:1002C000D4E901219047206A401CF2E7E16820460A
:1002D00000278847050018D0A5F14100192802D849
:1002E00020354FF400673246294620462760FFF745
:1002F0008DFF40B1012804D0F61D26F00706083610
:10030000D8E7361DD6E72846DAE7206ABDE8F0814F
:100310002DE9F0410646002410687529314616A5DE
:1003200010D0AFF30080002802DA404213A507E0A6
:1003300031688A0701D512A502E0490704D511A545
:10034000012401E0AFF3008000210A2206F1240716
:1003500009E0B0FBF2FCB0FBF2F302FB1C00303012
:1003600078541846491C0028F3D123462A463046C3
:10037000BDE8F04100F00BB8000000002D000000C7
:100380002B000000200000007047704770472DE9E7
:10039000F0470D4699469246044600F1240801684C
:1003A000880604D5E06921F01001216000E00120F9
:1003B000A84201DD471B00E00027A1697A1902EB82
:1003C0000900081AA0612078C00602D42046AFF3C5
:1003D0000080002608E0D4E901211AF806009047C1
:1003E000206A401C761C20624E45F4DB2078C00653
:1003F0000AD52046AFF3008006E0D4E90121302081
:100400009047206A401C2062381EA7F10107F4DCE7
:1004100007E0D4E9012118F805009047206A401C44
:100420002062281EA5F10105F3DC2046AFF3008011
:100430002078000602D50220BDE8F0870120FBE706
:1004400001694A1C02610878704700B58FB0CDE998
:1004500001310021059105497944CDE90310114688
:100460006846FFF721FF0FB000BD0000E5FFFFFF6A
:100470000A6802F8010B0A607047754600F02CF814
:10048000AE4605006946534620F00700854618B081
:1004900020B5FFF7E3FEBDE820404FF000064FF027
:1004A00000074FF000084FF0000BAC46ACE8C00965
:1004B000ACE8C009ACE8C009ACE8C00921F007010C
:1004C0008D46704710B50446AFF300802046BDE866
:1004D0001040FFF7AFBE000000487047000000204A
:1004E00001491820ABBEFEE726000200704700005D
:1004F000FEE7000070470000FEE70000FEE7000096
:10050000FEE70000704700007047000070470000E1
:100510004EF68850CEF20000016841F4700101608F
:1005200070470000FEE7000086B043F63000C4F2DA
:1005300002000268002142F00402C4F202010260DB
:10054000D1F8002842F03002C1F8002840F60C0231
:10055000C4F20202136823F030031360026846F20B
:10056000104342F48002C4F2020302601A6822F0CF
:1005700001021A601A68D20709D01A68D2071CBF94
:100580001A685FEAC27202D01A68D207F2D11F68F5
:1005900042F20802C4F2010267F0606740F26006AE
:1005A0001F6002F14407C2F200069F60B71CDF60C3
:1005B00032275F601F684FF0000847F400371F6064
:1005C0001F6847F400571F601F6847F400671F60EB
:1005D0001F6847F480671F601F6847F480771F60BB
:1005E0001F6847F010071F601F6847F001071F6072
:1005F000436943F48073436152F8043C43F48073CD
:1006000042F8043C136843F002031360136843F498
:1006100080731360136843F400731360536A23F408
:10062000700353620C23D362536843F4C073536066
:10063000136843F001031360CDF80480019F42F278
:100640000F739F421AD842F2107700BF019D013507
:100650000195019D9D4211D8019D01350195019D96
:100660009D420BD8019D01350195019D9D4205D804
:10067000019D01350195019DBD42E7D34EF2041362
:10068000CEF20003102783F834734FF080771F6099
:10069000036841F2000743F0010303600B68C4F2F2
:1006A000010723F480230B600B6848F21F5943F4C1
:1006B00000230B608B6840F65C0443F440238B609E
:1006C0004B6AC5F2EB1923F0F0034B624B6AC0F69C
:1006D000000443F070034B62416901AD41F0100129
:1006E0004161F86840F00800F86042F69350B86045
:1006F000F86840F40050F860106840F080401060E6
:1007000002E000BF86F8008030780128FCD17088B4
:10071000B18832890844F188084471891044B2894B
:100720000844F1891044328A0844718A1044B28A1C
:100730000844F18A1044328B0844718B1044B28B08
:100740000844F18B1044328C0844718C1044B28CF4
:100750000844F18C1044328D0844718D1044B28DE0
:100760000844F18D1044328E0844718E1044B28ECC
:100770000844F18E1044328F0844718F1044B28FB8
:100780000844F18F1044B6F840200844B6F84210EF
:100790001044B6F844200844B6F846101044B6F8A1
:1007A00048200844B6F84A101044B6F84C200844D3
:1007B000B6F84E101044B6F850200844B6F852105F
:1007C0001044B6F854200844B6F856101044B6F851
:1007D00058200844B6F85A101044B6F85C20084473
:1007E000B6F85E101044B6F860200844B6F86210FF
:1007F0001044B6F8642008441044A0FB09010A091B
:1008000028462146FFF73CFD9DF8040000283FF4F0
:1008100079AF294607E000BF11F8012F7860002A60
:1008200010463FF46FAF3A681206F5D43A681206E4
:100830005CBF3A685FEA0262EED43A681206F2D50B
:10084000EAE7F1EE100A4FF6FF71C0F2C03120EA7C
:10085000010040F04070E1EE100A704725750D0A66
:10086000000000007408000800000020C806000016
:04087000F00100088B
:040000050800018965
:00000001FF
