:020000040800F2
:1000000000000220E90A0008F9090008010A0008B6
:10001000090A0008110A0008190A00080000000077
:10002000000000000000000000000000210A00089D
:100030002F0A0008000000003D0A00084B0A0008D3
:10004000390B0008390B0008390B0008390B000880
:10005000390B0008390B0008390B0008390B000870
:10006000390B0008390B0008390B0008390B000860
:10007000390B0008390B0008390B0008390B000850
:10008000390B0008390B0008390B0008390B000840
:10009000390B0008390B0008390B0008390B000830
:1000A000390B0008390B0008390B0008390B000820
:1000B000390B0008390B0008390B0008390B000810
:1000C000390B0008390B0008390B0008390B000800
:1000D000390B0008390B0008390B0008390B0008F0
:1000E000390B0008390B0008390B0008390B0008E0
:1000F000390B0008390B0008390B0008390B0008D0
:10010000390B0008390B0008390B0008390B0008BF
:10011000390B0008390B0008390B0008390B0008AF
:10012000390B0008390B0008390B0008390B00089F
:10013000390B00080000000000000000390B000827
:10014000390B0008390B0008390B0008390B00087F
:10015000390B0008390B0008390B0008390B00086F
:10016000390B0008390B0008390B0008390B00085F
:10017000390B0008390B00080000000000000000E7
:08018000390B0008390B0008DF
:1001900010B5054C237833B9044B13B10448AFF3C1
:1001A00000800123237010BD5C00002000000000CF
:1001B000A833000808B5034B1BB103490348AFF34C
:1001C000008008BD0000000060000020A833000887
:1001D000034613F8012B002AFBD1181A0138704787
:1001E00001F0FF01102A2BDB10F0070F08D010F8E8
:1001F000013B013A8B422DD010F0070F42B3F6D1EC
:10020000F0B441EA012141EA014122F007047FF004
:1002100000070023F0E80256083C85EA010586EA5B
:10022000010685FA47F5A3FA87F586FA47F6A5FA97
:1002300087F68EB9EED1F0BC01F0FF0102F00702A3
:1002400032B110F8013B013A83EA010313B1F8D14E
:100250000020704701387047002D06BF354603382F
:10026000073815F0010F07D1013015F4807F02BF68
:10027000013015F4C03F0130F0BC0138704700BFB9
:1002800053B94AB9002908BF00281CBF4FF0FF31FD
:100290004FF0FF3000F088B9ADF1080C6DE904CEE5
:1002A00000F006F8DDF804E0DDE9022304B0704751
:1002B0002DE9F047089D8E4604468846002B4AD11A
:1002C0008A42174662D9B2FA82F64EB1C6F12003CD
:1002D00001FA06F820FA03F3B74043EA0808B440ED
:1002E0004FEA174E1FFA87FCB8FBFEF1230C0EFBFA
:1002F000118843EA084301FB0CF29A4209D9FB1822
:1003000001F1FF3080F0EA809A4240F2E780023942
:100310003B449A1AA3B2B2FBFEF00EFB102243EA52
:10032000024300FB0CFC9C4509D9FB1800F1FF328D
:1003300080F0D6809C4540F2D3803B44023840EAAE
:100340000140A3EB0C0300211DB1F3400022C5E9DD
:100350000032BDE8F0878B4205D90DB1C5E9000137
:1003600000210846F5E7B3FA83F1002946D1734529
:1003700002D3824200F20581841A6EEB030201204F
:100380009046002DE5D0C5E90048E2E7002A00F0DC
:100390009080B2FA82F6002E40F0A4808A1A030CF4
:1003A0004FEA174E80B2BCB20121B2FBFEFC0EFB3D
:1003B0001C2243EA024304FB0CF29A4207D9FB18C1
:1003C0000CF1FF3802D29A4200F2E080C4469B1A38
:1003D000B3FBFEF20EFB123340EA034302FB04F4CC
:1003E0009C4207D9FB1802F1FF3002D29C4200F276
:1003F000CA8002461B1B42EA0C40A5E7C1F1200659
:100400008B4022FA06F71F430EFA01F420FA06F396
:100410002EFA06FE4FEA1749234300FA01F81FFAA5
:1004200087FCBEFBF9F01C0C09FB10EE44EA0E44FD
:1004300000FB0CFEA64502FA01F209D93C1900F1B5
:10044000FF3A80F09C80A64540F2998002383C44F7
:10045000A4EB0E041FFA83FEB4FBF9F309FB13446B
:100460004EEA044403FB0CFCA44508D93C1903F1F3
:10047000FF3E80F08280A4457FD9023B3C4443EAA2
:100480000040A4EB0C04A0FB02EC64457346E1467B
:1004900062D35FD05DB1B8EB030264EB090404FAE8
:1004A00006F622FA01F31E43CC40C5E900640021A0
:1004B0004FE7B1FBF2FC010C41EA0E4180B240EA89
:1004C00001423B4638463C46B846BE462026B1FB74
:1004D000F7F1A2EB080241EA0C4166E7014618E792
:1004E00010462CE7C6F120022EFA02F3B740B140C5
:1004F00020FA02F24FEA174E0A43B3FBFEF8BCB2F1
:100500000EFB1833110C41EA034108FB04F9B0401B
:1005100089454FEA104380B23ED9791808F1FF3C73
:1005200001D289451FD8A1EB0901B1FBFEF909FBF6
:1005300004F80EFB191192B242EA0142424529D257
:10054000BA1809F1FF31C4D24245C2D2A9F1020161
:100550003A44BEE7F0459DD2BEEB02036CEB070CBC
:100560000138E14696E7A7EB09094944A8F1020CD6
:10057000B1FBFEF909FB04F8DBE773467FE7504661
:1005800066E70846FDE63B44023A33E7ACF1020C6D
:100590003B441CE749469CE7A1EB0901C446B1FB7B
:1005A000FEF909FB04F8C4E7704700BF80B58EB0C0
:1005B00000AF00F0C3FA00F047F800F01FF900F0B8
:1005C000A1F800F0F1F801224FF400511A4801F0AF
:1005D000CDF9322000F024FB184800F089FB64219B
:1005E000164800F08AFC0346002B04D1134800F0A3
:1005F0000FFD786301E000237B63104800F04AFCA4
:1006000000224FF400510C4801F0B0F93B467A6BE0
:100610000B49184602F028FA3B461846FFF7D8FD6A
:1006200003469AB239466423064801F061FE4FF44E
:10063000FA7000F0F5FAC6E70008024078000020E2
:10064000C0330008C000002080B594B000AF07F1AF
:10065000200330220021184602F028FA07F10C038B
:1006600000221A605A609A60DA601A610023BB6047
:10067000224B1B6C214A43F0805313641F4B1B6CAD
:1006800003F08053BB60BB6800237B601C4B1B687E
:100690001B4A43F480431360194B1B6803F48043E7
:1006A0007B607B6802233B620123FB6210233B6378
:1006B0000023BB6307F12003184601F071F90346DC
:1006C000002B01D000F0DEF80F23FB6000233B611C
:1006D00000237B610023BB610023FB6107F10C0356
:1006E0000021184601F0D4FB0346002B01D000F096
:1006F000C9F800BF5037BD4680BD00BF003802407A
:100700000070004080B584B000AF3B4600221A6004
:100710005A609A60DA60214B214A1A601F4B00220E
:100720005A601E4B00229A601C4B00221A611B4B20
:1007300000221A76194B002283F82020174B002242
:10074000DA62164B174A9A62144B0022DA60134B96
:100750000122DA61114B002283F830200F4B012275
:100760005A610E4800F080FA0346002B01D000F0D9
:1007700089F80C233B6001237B600023BB603B4670
:100780001946064800F052FC0346002B01D000F049
:1007900079F800BF1037BD4680BD00BF780000204B
:1007A000002001400100000F80B500AF114B124A3C
:1007B0001A60104B4FF4E1325A600E4B00229A60DF
:1007C0000C4B0022DA600B4B00221A61094B0C2201
:1007D0005A61084B00229A61064B0022DA610548F3
:1007E00001F036FD0346002B01D000F04BF800BFAE
:1007F00080BD00BFC00000200010014080B588B05F
:1008000000AF07F10C0300221A605A609A60DA60A8
:100810001A610023BB60194B1B6B184A43F0040399
:100820001363164B1B6B03F00403BB60BB68002310
:100830007B60124B1B6B114A43F0010313630F4B98
:100840001B6B03F001037B607B6800224FF40051B7
:100850000B4801F08BF84FF40053FB6001233B6120
:1008600000237B610023BB6107F10C031946044898
:1008700000F0E0FE00BF2037BD4680BD00380240DA
:100880000008024080B400AF72B600BF00BFFDE7B1
:1008900080B483B000AF00237B60104B5B6C0F4AC9
:1008A00043F4804353640D4B5B6C03F480437B60E3
:1008B0007B6800233B60094B1B6C084A43F0805364
:1008C0001364064B1B6C03F080533B603B6800BF16
:1008D0000C37BD465DF8047B704700BF003802400E
:1008E00080B58AB000AF786007F1140300221A6067
:1008F0005A609A60DA601A617B681B68174A9342F3
:1009000027D100233B61164B5B6C154A43F480737F
:100910005364134B5B6C03F480733B613B690023AE
:10092000FB600F4B1B6B0E4A43F0040313630C4B2D
:100930001B6B03F00403FB60FB6804237B61032350
:10094000BB610023FB6107F114031946054800F061
:1009500071FE00BF2837BD4680BD00BF00200140AA
:10096000003802400008024080B58AB000AF7860CD
:1009700007F1140300221A605A609A60DA601A6163
:100980007B681B68194A93422CD100233B61184BAA
:100990005B6C174A43F010035364154B5B6C03F018
:1009A00010033B613B690023FB60114B1B6B104A3A
:1009B00043F0010313630E4B1B6B03F00103FB6059
:1009C000FB684FF4C0637B610223BB610023FB61C2
:1009D00003233B6207237B6207F114031946054892
:1009E00000F028FE00BF2837BD4680BD0010014042
:1009F000003802400000024080B400AF00BFFDE7B5
:100A000080B400AF00BFFDE780B400AF00BFFDE7DA
:100A100080B400AF00BFFDE780B400AF00BFFDE7CA
:100A200080B400AF00BFBD465DF8047B704780B462
:100A300000AF00BFBD465DF8047B704780B400AFD7
:100A400000BFBD465DF8047B704780B500AF00F085
:100A5000C7F800BF80BD000080B586B000AF7860E9
:100A6000144A154BD31A7B617B693B61134B1B689E
:100A7000002B02D1114B124A1A60104B1A687B6886
:100A800013443A699A4207D202F018F803460C223E
:100A90001A604FF0FF3309E0084B1B68FB60074BFF
:100AA0001A687B681344054A1360FB6818461837B8
:100AB000BD4680BD000002200004000008010020A7
:100AC0005802002080B400AF064BD3F88830054AA6
:100AD00043F47003C2F8883000BFBD465DF8047B64
:100AE000704700BF00ED00E0DFF834D0FFF7EAFF09
:100AF0000C480D490D4A002302E0D458C450043379
:100B0000C4188C42F9D30A4A0A4C002301E013604E
:100B10000432A242FBD301F0D7FFFFF747FD704735
:100B200000000220000000205C000020303400089B
:100B30005C00002058020020FEE7000080B500AFF6
:100B40000E4B1B680D4A43F4007313600B4B1B687C
:100B50000A4A43F480631360084B1B68074A43F456
:100B600080731360032000F031FD0F2000F008F8BF
:100B7000FFF78EFE0023184680BD00BF003C0240F8
:100B800080B582B000AF7860124B1A68124B1B78A8
:100B900019464FF47A73B3FBF1F3B2FBF3F3184643
:100BA00000F03BFD0346002B01D001230EE07B68E3
:100BB0000F2B0AD8002279684FF0FF3000F011FDAA
:100BC000064A7B681360002300E0012318460837BB
:100BD000BD4680BD00000020080000200400002069
:100BE00080B400AF064B1B781A46064B1B681344B3
:100BF000044A136000BFBD465DF8047B704700BF28
:100C0000080000200C01002080B400AF034B1B68DB
:100C10001846BD465DF8047B704700BF0C010020FC
:100C200080B584B000AF7860FFF7EEFFB8607B68F6
:100C3000FB60FB68B3F1FF3F05D00A4B1B781A46F7
:100C4000FB681344FB6000BFFFF7DEFF0246BB6892
:100C5000D31AFA689A42F7D800BF00BF1037BD46D2
:100C600080BD00BF0800002080B584B000AF786070
:100C70000023FB737B68002B01D1012333E07B68E9
:100C80001B6C002B09D17868FFF72AFE7B680022D5
:100C90005A647B68002283F83C207B681B6C03F05D
:100CA0001003002B18D17B681B6C23F4885323F0AE
:100CB000020343F002027B681A64786800F0D8FAF5
:100CC0007B6800225A647B681B6C23F0030343F0AB
:100CD00001027B681A6401E00123FB737B68002238
:100CE00083F83C20FB7B18461037BD4680BD0000D2
:100CF00080B485B000AF78600023BB607B6893F858
:100D00003C30012B01D10223B2E07B68012283F841
:100D10003C207B681B689B6803F00103012B18D003
:100D20007B681B689A687B681B6842F001029A60C6
:100D3000524B1B68524AA2FB03239A0C13465B00DA
:100D40001344BB6002E0BB68013BBB60BB68002B87
:100D5000F9D17B681B689B6803F00103012B7AD1F2
:100D60007B681B6C23F4E06323F0010343F480727F
:100D70007B681A647B681B685B6803F48063002BE4
:100D800007D07B681B6C23F4405343F480527B688C
:100D90001A647B681B6C03F48053B3F5805F06D143
:100DA0007B685B6C23F006027B685A6402E07B6818
:100DB00000225A647B68002283F83C20314BFB60A0
:100DC0007B681B686FF022021A60FB685B6803F0A7
:100DD0001F03002B2AD17B681B682B4A934215D036
:100DE0007B681B68294A934205D1264B5B6803F058
:100DF0001F03002B0AD07B681B68254A934236D11B
:100E0000204B5B6803F01003002B30D17B681B681C
:100E10009B6803F04053002B29D17B681B689A68BC
:100E20007B681B6842F080429A6020E07B681B6808
:100E3000154A93421BD17B681B689B6803F04053A3
:100E4000002B14D17B681B689A687B681B6842F092
:100E500080429A600BE07B681B6C43F010027B6859
:100E60001A647B685B6C43F001027B685A64002360
:100E700018461437BD465DF8047B7047000000201B
:100E800083DE1B430023014000200140002101407C
:100E90000022014080B483B000AF78607B6893F893
:100EA0003C30012B01D1022321E07B68012283F831
:100EB0003C207B681B689A687B681B6822F00102F3
:100EC0009A607B681B689B6803F00103002B09D1C3
:100ED0007B681B6C23F4885323F0010343F0010269
:100EE0007B681A647B68002283F83C200023184644
:100EF0000C37BD465DF8047B704780B584B000AF09
:100F0000786039600023FB607B681B689B6803F492
:100F10008063B3F5806F13D17B681B689B6803F413
:100F20008073B3F5807F0BD17B681B6C43F020028C
:100F30007B681A647B68002283F83C20012363E00D
:100F4000FFF762FEF86021E03B68B3F1FF3F1DD080
:100F50003B68002B07D0FFF757FE0246FB68D31A09
:100F60003A689A4212D27B681B681B6803F002033E
:100F7000022B0BD07B681B6C43F004027B681A6465
:100F80007B68002283F83C2003233DE07B681B68DC
:100F90001B6803F00203022BD6D17B681B686FF03D
:100FA00012021A607B681B6C43F400727B681A643F
:100FB0007B681B689B6803F04053002B23D17B6840
:100FC0001B7E002B1FD17B681B68DB6A03F4700358
:100FD000002B06D07B681B689B6803F48063002BA2
:100FE00011D17B681B6C23F480727B681A647B6868
:100FF0001B6C03F48053002B05D17B681B6C43F002
:1010000001027B681A64002318461037BD4680BD74
:1010100080B483B000AF78607B681B68DB6C1846D7
:101020000C37BD465DF8047B7047000080B485B086
:1010300000AF786039600023BB607B6893F83C3078
:10104000012B01D1022305E17B68012283F83C20BA
:101050003B681B68092B25D97B681B68D9683B68EE
:101060001B689BB21A4613465B0013441E3B0722C3
:1010700002FA03F3DA437B681B680A40DA607B6894
:101080001B68D9683B689A683B681B689BB2184626
:1010900003465B0003441E3B9A407B681B680A437F
:1010A000DA6022E07B681B6819693B681B689BB2A9
:1010B0001A4613465B001344072202FA03F3DA438D
:1010C0007B681B680A401A617B681B6819693B686A
:1010D0009A683B681B689BB2184603465B00034452
:1010E0009A407B681B680A431A613B685B68062B61
:1010F00024D87B681B68596B3B685A6813469B0071
:101100001344053B1F2202FA03F3DA437B681B6892
:101110000A405A637B681B68596B3B681B689BB22B
:1011200018463B685A6813469B001344053B00FA77
:1011300003F27B681B680A435A634CE03B685B68B8
:101140000C2B24D87B681B68196B3B685A681346C4
:101150009B001344233B1F2202FA03F3DA437B680C
:101160001B680A401A637B681B68196B3B681B6825
:101170009BB218463B685A6813469B001344233BB6
:1011800000FA03F27B681B680A431A6323E07B685A
:101190001B68D96A3B685A6813469B001344413B5D
:1011A0001F2202FA03F3DA437B681B680A40DA6203
:1011B0007B681B68D96A3B681B689BB218463B6812
:1011C0005A6813469B001344413B00FA03F27B68C4
:1011D0001B680A43DA62224BFB607B681B68214A6A
:1011E000934209D13B681B68122B05D1FB685B68F1
:1011F00043F48002FB685A607B681B68194A93427B
:1012000023D13B681B68102B03D03B681B68112B54
:101210001BD1FB685B6843F40002FB685A603B68C3
:101220001B68102B11D1104B1B68104AA2FB032323
:101230009A0C13469B0013445B00BB6002E0BB6842
:10124000013BBB60BB68002BF9D17B68002283F8AF
:101250003C20002318461437BD465DF8047B7047D8
:1012600000230140002001400000002083DE1B43DA
:1012700080B485B000AF7860794BFB60FB685B6839
:1012800023F44032FB685A60FB685A687B685B68ED
:101290001A43FB685A607B681B685A687B681B6846
:1012A00022F480725A607B681B6859687B681B69EE
:1012B0001A027B681B680A435A607B681B685A687D
:1012C0007B681B6822F040725A607B681B68596813
:1012D0007B689A687B681B680A435A607B681B6856
:1012E0009A687B681B6822F400629A607B681B68BE
:1012F00099687B68DA687B681B680A439A607B6838
:101300009B6A584A934222D07B681B689A687B6824
:101310001B6822F070629A607B681B6899687B6822
:101320009A6A7B681B680A439A607B681B689A68A4
:101330007B681B6822F040529A607B681B68996842
:101340007B68DA6A7B681B680A439A600FE07B68F7
:101350001B689A687B681B6822F070629A607B68E1
:101360001B689A687B681B6822F040529A607B6811
:101370001B689A687B681B6822F002029A607B688F
:101380001B6899687B681B7E5A007B681B680A4350
:101390009A607B6893F82030002B1BD07B681B6819
:1013A0005A687B681B6842F400625A607B681B685D
:1013B0005A687B681B6822F460425A607B681B682D
:1013C00059687B685B6A013B5A037B681B680A4368
:1013D0005A6007E07B681B685A687B681B6822F4C8
:1013E00000625A607B681B68DA6A7B681B6822F4BB
:1013F0007002DA627B681B68D96A7B68DB69013B33
:101400001A057B681B680A43DA627B681B689A6866
:101410007B681B6822F400729A607B681B6899687D
:101420007B6893F830305A027B681B680A439A60E5
:101430007B681B689A687B681B6822F480629A60EC
:101440007B681B6899687B685B699A027B681B688C
:101450000A439A6000BF1437BD465DF8047B7047AD
:10146000002301400100000F80B485B000AF786018
:101470007B6803F00703FB600C4BDB68BB60BA685A
:101480004FF6FF031340BB60FB681A02BB681343AF
:1014900043F0BF6343F40033BB60044ABB68D360CE
:1014A00000BF1437BD465DF8047B704700ED00E0D7
:1014B00080B400AF044BDB681B0A03F00703184637
:1014C000BD465DF8047B704700ED00E080B483B05A
:1014D00000AF03463960FB7197F90730002B0ADB38
:1014E0003B68DAB20C4997F907301201D2B20B44CB
:1014F00083F800230AE03B68DAB20849FB7903F07D
:101500000F03043B1201D2B20B441A7600BF0C3712
:10151000BD465DF8047B704700E100E000ED00E0AF
:1015200080B489B000AFF860B9607A60FB6803F0FE
:101530000703FB61FB69C3F10703042B28BF0423E6
:10154000BB61FB690433062B02D9FB69033B00E056
:1015500000237B614FF0FF32BB6902FA03F3DA43E9
:10156000BB681A407B699A404FF0FF317B6901FAF2
:1015700003F3D9437B680B40134318462437BD4619
:101580005DF8047B7047000080B582B000AF7860E2
:101590007B68013BB3F1807F01D301230FE00A4A4E
:1015A0007B68013B53600F214FF0FF30FFF78EFF48
:1015B000054B00229A60044B07221A60002318464C
:1015C0000837BD4680BD00BF10E000E080B582B0A6
:1015D00000AF78607868FFF747FF00BF0837BD4667
:1015E00080BD80B586B000AF0346B9607A60FB73FA
:1015F00000237B61FFF75CFF78617A68B9687869DE
:10160000FFF78EFF024697F90F3011461846FFF795
:101610005DFF00BF1837BD4680BD80B582B000AF0A
:1016200078607868FFF7B0FF034618460837BD4674
:1016300080BD000080B489B000AF786039600023BD
:101640007B6100233B610023BB610023FB616BE1F5
:101650000122FB6902FA03F37B613B681B687A692C
:1016600013403B613A697B699A4240F05A813B687A
:101670005B6803F00303012B05D03B685B6803F054
:101680000303022B30D17B689B68BB61FB695B0065
:10169000032202FA03F3DB43BA691340BB613B68E0
:1016A000DA68FB695B0002FA03F3BA691343BB61B2
:1016B0007B68BA699A607B685B68BB610122FB69E1
:1016C00002FA03F3DB43BA691340BB613B685B6812
:1016D0001B0903F00102FB6902FA03F3BA69134321
:1016E000BB617B68BA695A603B685B6803F00303BF
:1016F000032B17D07B68DB68BB61FB695B000322AF
:1017000002FA03F3DB43BA691340BB613B689A6892
:10171000FB695B0002FA03F3BA691343BB617B68A0
:10172000BA69DA603B685B6803F00303022B23D1DC
:10173000FB69DA087B68083253F82230BB61FB6929
:1017400003F007039B000F2202FA03F3DB43BA699D
:101750001340BB613B681A69FB6903F007039B00F8
:1017600002FA03F3BA691343BB61FB69DA087B68C9
:101770000832B96943F822107B681B68BB61FB69BA
:101780005B00032202FA03F3DB43BA691340BB6137
:101790003B685B6803F00302FB695B0002FA03F33A
:1017A000BA691343BB617B68BA691A603B685B68BE
:1017B00003F44033002B00F0B4800023FB60604B47
:1017C0005B6C5F4A43F4804353645D4B5B6C03F492
:1017D0008043FB60FB685B4AFB699B08023352F85D
:1017E0002330BB61FB6903F003039B000F2202FA65
:1017F00003F3DB43BA691340BB617B68524A9342EF
:101800002BD07B68514A934225D07B68504A934243
:101810001FD07B684F4A934219D07B684E4A93424F
:1018200013D07B684D4A93420DD07B684C4A93425B
:1018300007D07B684B4A934201D107230EE008236F
:101840000CE006230AE0052308E0042306E0032356
:1018500004E0022302E0012300E00023FA6902F021
:10186000030292009340BA691343BB613549FB6997
:101870009B080233BA6941F823203B4B9B68BB614C
:101880003B69DB43BA691340BB613B685B6803F4A7
:101890008013002B03D0BA693B691343BB61324A02
:1018A000BB699360304BDB68BB613B69DB43BA6962
:1018B0001340BB613B685B6803F40013002B03D04B
:1018C000BA693B691343BB61274ABB69D360264BA6
:1018D0005B68BB613B69DB43BA691340BB613B6832
:1018E0005B6803F40033002B03D0BA693B691343F0
:1018F000BB611D4ABB6953601B4B1B68BB613B69E5
:10190000DB43BA691340BB613B685B6803F4803317
:10191000002B03D0BA693B691343BB61124ABB6910
:101920001360FB690133FB61FB690F2B7FF690AEFF
:1019300000BF00BF2437BD465DF8047B704700BF81
:10194000003802400038014000000240000402401C
:1019500000080240000C0240001002400014024047
:1019600000180240001C0240003C014080B483B0DB
:1019700000AF78600B467B8013467B707B78002B32
:1019800003D07A887B689A6103E07B881A047B68BD
:101990009A6100BF0C37BD465DF8047B70470000BC
:1019A00080B586B000AF78607B68002B01D1012341
:1019B00067E27B681B6803F00103002B75D0884B3E
:1019C0009B6803F00C03042B0CD0854B9B6803F041
:1019D0000C03082B12D1824B5B6803F48003B3F530
:1019E000800F0BD17E4B1B6803F40033002B5BD0C0
:1019F0007B685B68002B57D1012342E27B685B6800
:101A0000B3F5803F06D1764B1B68754A43F48033AB
:101A100013601DE07B685B68B3F5A02F0CD1704BA1
:101A20001B686F4A43F4802313606D4B1B686C4A3C
:101A300043F4803313600BE0694B1B68684A23F45E
:101A400080331360664B1B68654A23F48023136060
:101A50007B685B68002B13D0FFF7D6F8386108E08D
:101A6000FFF7D2F802463B69D31A642B01D903234E
:101A700007E25B4B1B6803F40033002BF0D014E04B
:101A8000FFF7C2F8386108E0FFF7BEF802463B698D
:101A9000D31A642B01D90323F3E1514B1B6803F4E0
:101AA0000033002BF0D100E000BF7B681B6803F01F
:101AB0000203002B63D04A4B9B6803F00C03002BFE
:101AC0000BD0474B9B6803F00C03082B1CD1444BF5
:101AD0005B6803F48003002B16D1414B1B6803F0B5
:101AE0000203002B05D07B68DB68012B01D00123AA
:101AF000C7E13B4B1B6823F0F8027B681B69DB00E6
:101B0000374913430B603AE07B68DB68002B20D039
:101B1000344B01221A60FFF777F8386108E0FFF7CD
:101B200073F802463B69D31A022B01D90323A8E1BB
:101B30002B4B1B6803F00203002BF0D0284B1B68D3
:101B400023F0F8027B681B69DB00254913430B6017
:101B500015E0244B00221A60FFF756F8386108E0C0
:101B6000FFF752F802463B69D31A022B01D903232F
:101B700087E11B4B1B6803F00203002BF0D17B684D
:101B80001B6803F00803002B36D07B685B69002BD1
:101B900016D0154B01221A60FFF736F8386108E0BD
:101BA000FFF732F802463B69D31A022B01D903230F
:101BB00067E10B4B5B6F03F00203002BF0D01BE0DF
:101BC000094B00221A60FFF71FF838610EE0FFF79B
:101BD0001BF802463B69D31A022B07D9032350E1B5
:101BE0000038024000004742800E4742884B5B6F3E
:101BF00003F00203002BEAD17B681B6803F00403A7
:101C0000002B00F097800023FB75814B1B6C03F0C9
:101C10008053002B0FD10023BB607D4B1B6C7C4A93
:101C200043F0805313647A4B1B6C03F08053BB600A
:101C3000BB680123FB75774B1B6803F48073002B93
:101C400018D1744B1B68734A43F480731360FEF71A
:101C5000DBFF386108E0FEF7D7FF02463B69D31A85
:101C6000022B01D903230CE16A4B1B6803F4807338
:101C7000002BF0D07B689B68012B06D1644B1B6F57
:101C8000634A43F0010313671CE07B689B68052BE4
:101C90000CD15F4B1B6F5E4A43F0040313675C4B30
:101CA0001B6F5B4A43F0010313670BE0584B1B6F3C
:101CB000574A23F001031367554B1B6F544A23F017
:101CC000040313677B689B68002B15D0FEF79CFF0D
:101CD00038610AE0FEF798FF02463B69D31A41F2E9
:101CE0008832934201D90323CBE0494B1B6F03F0A9
:101CF0000203002BEED014E0FEF786FF38610AE005
:101D0000FEF782FF02463B69D31A41F288329342C2
:101D100001D90323B5E03E4B1B6F03F00203002BF8
:101D2000EED1FB7D012B05D1394B1B6C384A23F0DA
:101D3000805313647B689B69002B00F0A180344BB7
:101D40009B6803F00C03082B5CD07B689B69022B1B
:101D500041D1314B00221A60FEF756FF386108E08E
:101D6000FEF752FF02463B69D31A022B01D9032327
:101D700087E0274B1B6803F00073002BF0D17B68D2
:101D8000DA697B681B6A1A437B685B6A9B011A43AA
:101D90007B689B6A5B08013B1B041A437B68DB6A18
:101DA0001B061B4913434B601B4B01221A60FEF7B5
:101DB0002BFF386108E0FEF727FF02463B69D31A84
:101DC000022B01D903235CE0114B1B6803F0007365
:101DD000002BF0D054E0104B00221A60FEF714FFE5
:101DE000386108E0FEF710FF02463B69D31A022B68
:101DF00001D9032345E0064B1B6803F00073002B59
:101E0000F0D13DE07B689B69012B07D1012338E0CD
:101E10000038024000700040600047421B4B5B6886
:101E2000FB607B689B69012B28D0FB6803F4800270
:101E30007B68DB699A4221D1FB6803F03F027B6833
:101E40001B6A9A421AD1FA6847F6C07313407A683F
:101E5000526A9201934211D1FB6803F440327B68CD
:101E60009B6A5B08013B1B049A4207D1FB6803F0A5
:101E700070627B68DB6A1B069A4201D0012300E096
:101E8000002318461837BD4680BD00BF0038024009
:101E900080B584B000AF786039607B68002B01D1D9
:101EA0000123CCE0684B1B6803F007033A689A42B1
:101EB0000CD9654B3A68D2B21A70634B1B6803F0B9
:101EC00007033A689A4201D00123B8E07B681B6897
:101ED00003F00203002B20D07B681B6803F004038F
:101EE000002B05D0594B9B68584A43F4E05393604C
:101EF0007B681B6803F00803002B05D0534B9B68DD
:101F0000524A43F460439360504B9B6823F0F002C5
:101F10007B689B684D4913438B607B681B6803F0AB
:101F20000103002B44D07B685B68012B07D1474B32
:101F30001B6803F40033002B19D101237FE07B6879
:101F40005B68022B03D07B685B68032B07D13F4B98
:101F50001B6803F00073002B09D101236FE03B4B9A
:101F60001B6803F00203002B01D1012367E0374B0C
:101F70009B6823F003027B685B68344913438B60E2
:101F8000FEF742FEF8600AE0FEF73EFE0246FB68FE
:101F9000D31A41F28832934201D903234FE02B4BED
:101FA0009B6803F00C027B685B689B009A42EBD154
:101FB000254B1B6803F007033A689A420CD2224B68
:101FC0003A68D2B21A70204B1B6803F007033A68D4
:101FD0009A4201D0012332E07B681B6803F00403BE
:101FE000002B08D0194B9B6823F4E0527B68DB6818
:101FF000164913438B607B681B6803F00803002BB2
:1020000009D0124B9B6823F460427B681B69DB009C
:102010000E4913438B6000F021F802460B4B9B687E
:102020001B0903F00F030A49CB5C22FA03F3094AA8
:102030001360094B1B681846FEF7A2FD00231846E3
:102040001037BD4680BD00BF003C02400038024052
:10205000D433000800000020040000202DE9B04F18
:1020600090B000AF00237B630023FB6300233B633E
:102070000023BB63594B9B6803F00C03082B0DD066
:10208000082B00F2A180002B02D0042B03D09BE090
:10209000534BBB639BE0534BBB6398E04F4B5B6878
:1020A00003F03F037B634D4B5B6803F48003002B1D
:1020B00028D04A4B5B689B0900223B627A623B6AEC
:1020C000C3F308000021474B03FB01F2002300FB90
:1020D00003F31344434AA0FB0212FA620A46BA62AF
:1020E000FA6A1344FB627B6B0022BB61FA61D7E999
:1020F0000623D7E90A01FEF7C3F802460B4613464A
:10210000FB6353E0354B5B689B0900223B617A61BE
:102110003B69C3F3080A4FF0000B52465B464FF091
:1021200000004FF00001590141EAD261500102461E
:102130000B46B2EB0A0863EB0B094FF000024FF0BD
:1021400000034FEA891343EA98634FEA8812B2EB1F
:10215000080463EB09054FF000024FF00003EB00A9
:1021600043EA5473E20014461D4614EB0A033B6035
:1021700045EB0B037B604FF000024FF00003D7E903
:10218000004529468B02214643EA915321468A02A3
:10219000104619467B6B0022BB60FA60D7E9022328
:1021A000FEF76EF802460B461346FB630B4B5B686B
:1021B0001B0C03F0030301335B003B63FA6B3B6BC7
:1021C000B2FBF3F3BB6302E0054BBB6300BFBB6B29
:1021D00018464037BD46BDE8B08F00BF003802400A
:1021E0000024F40040787D0180B400AF034B1B68ED
:1021F0001846BD465DF8047B704700BF0000002014
:1022000080B500AFFFF7F0FF0246054B9B689B0AC5
:1022100003F007030349CB5C22FA03F3184680BDA1
:1022200000380240E433000880B500AFFFF7DCFF60
:102230000246054B9B685B0B03F007030349CB5C2D
:1022400022FA03F3184680BD00380240E433000848
:1022500080B582B000AF78607B68002B01D101238C
:1022600042E07B6893F84130DBB2002B06D17B68FB
:10227000002283F840207868FEF776FB7B682422F2
:1022800083F841207B681B68DA687B681B6822F44E
:102290000052DA60786800F073F97B681B681A698D
:1022A0007B681B6822F490421A617B681B685A693C
:1022B0007B681B6822F02A025A617B681B68DA6817
:1022C0007B681B6842F40052DA607B6800225A6423
:1022D0007B68202283F841207B68202283F84220FB
:1022E0007B6800225A63002318460837BD4680BD2C
:1022F00080B58AB002AFF860B9603B601346FB80DE
:1023000000237B61FB6893F84130DBB2202B75D151
:10231000BB68002B02D0FB88002B01D101236EE0AB
:10232000FB6800225A64FB68212283F84120FEF7F3
:102330006BFC7861FB68FA889A84FB68FA88DA8417
:10234000FB689B68B3F5805F08D1FB681B69002BB5
:1023500004D10023FB61BB68BB6103E0BB68FB6188
:102360000023BB612EE03B6800937B690022802143
:10237000F86800F048F80346002B05D0FB682022DF
:1023800083F8412003233AE0FB69002B0BD1BB69A2
:102390001B881A46FB681B68C2F308025A60BB69B7
:1023A0000233BB6107E0FB691A78FB681B685A605F
:1023B000FB690133FB61FB68DB8C9BB2013B9AB28A
:1023C000FB68DA84FB68DB8C9BB2002BCBD13B68CB
:1023D00000937B6900224021F86800F014F803465E
:1023E000002B05D0FB68202283F84120032306E060
:1023F000FB68202283F84120002300E002231846D6
:102400002037BD4680BD80B586B000AFF860B960AA
:102410003B601346FB713BE03B6AB3F1FF3F37D0B3
:10242000FEF7F2FB02463B68D31A3A6A9A4202D39D
:102430003B6A002B01D103233AE0FB681B68DB6891
:1024400003F00403002B23D0BB68802B20D0BB6893
:10245000402B1DD0FB681B681B6803F00803082B8A
:1024600016D100237B61FB681B681B687B61FB68DE
:102470001B685B687B617B69F86800F01DF8FB688E
:1024800008225A64FB68002283F8402001230FE0F1
:10249000FB681B681A68BB681340BA689A420CBF95
:1024A00001230023DBB21A46FB799A42B4D0002301
:1024B00018461837BD4680BD80B495B000AF78602F
:1024C0007B681B680C337B637B6B53E8003F3B638B
:1024D0003B6B23F49073FB647B681B680C33FA6CD2
:1024E0003A64FB63F96B3A6C41E80023BB63BB6B56
:1024F000002BE5D17B681B6814333B623B6A53E8D1
:10250000003FFB61FB6923F00103BB647B681B6830
:102510001433BA6CFA62BB62B96AFA6A41E8002302
:102520007B627B6A002BE5D17B681B6B012B19D189
:102530007B681B680C33FB60FB6853E8003FBB60A3
:10254000BB6823F010037B647B681B680C337A6CD8
:10255000BA617B617969BA6941E800233B613B69F3
:10256000002BE5D17B68202283F842207B68002283
:102570001A6300BF5437BD465DF8047B7047000006
:102580002DE9B04FC0B000AFC7F8F400D7F8F43071
:102590001B681B6923F44050D7F8F430D968D7F88A
:1025A000F4301A6840EA01031361D7F8F4309A68EE
:1025B000D7F8F4301B691A43D7F8F4305B691A4333
:1025C000D7F8F430DB691343C7F8F830D7F8F430A4
:1025D0001B68DB6823F4164121F00C01D7F8F430B6
:1025E0001A68D7F8F8300B43D360D7F8F4301B687B
:1025F0005B6923F44070D7F8F4309969D7F8F43068
:102600001A6840EA01035361D7F8F4301A688F4B17
:102610009A4205D0D7F8F4301A688D4B9A4204D10B
:10262000FFF702FEC7F8FC0003E0FFF7E9FDC7F87B
:10263000FC00D7F8F430DB69B3F5004F40F00C81B3
:10264000D7F8FC300022C7F8E830C7F8EC20D7E90B
:102650003A4522462B469118B9655B41FB65D7E99F
:102660001623214612EB0108294643EB01094FF0DE
:1026700000024FF000034FEAC90343EA58734FEAE0
:10268000C80290469946234618EB0303C7F8E0308A
:102690002B4649EB0303C7F8E430D7F8F4305B6806
:1026A0000022C7F8D830C7F8DC20D7E936120B462D
:1026B000DB183B65134642EB03037B65D7E9142324
:1026C000D7E93801FDF7DCFD02460B46614BA3FB61
:1026D00002235B091C01D7F8FC300022C7F8D03078
:1026E000C7F8D420D7E9348942464B469118B964DB
:1026F0005B41FB64D7E91223414612EB010A4946CC
:1027000043EB010B4FF000024FF000034FEACB0305
:1027100043EA5A734FEACA0292469B4643461AEB73
:102720000303C7F8C8304B464BEB0303C7F8CC3064
:10273000D7F8F4305B680022C7F8C030C7F8C4206F
:10274000D7E930120B46DB183B64134642EB030318
:102750007B64D7E91023D7E93201FDF791FD0246EA
:102760000B4611463B4BA3FB01235B09642202FB92
:1027700003F3CB1ADB0003F13202364BA3FB022337
:102780005B095B0003F4F8731C44D7F8FC300022AB
:10279000C7F8B830C7F8BC20D7E92E8942464B4667
:1027A0009118B9635B41FB63D7E90E234146511889
:1027B000396349464B417B634FF000024FF0000301
:1027C000D7E90CAB5946CB00514643EA5173514609
:1027D000CA0010461946034642469B18C7F8B03057
:1027E0004B460A4642EB0303C7F8B430D7F8F4303F
:1027F0005B680022C7F8A830C7F8AC20D7E92A12D6
:102800000B46DB18BB62134642EB0303FB62D7E9BE
:102810000A23D7E92C01FDF733FD02460B460D4B89
:10282000A3FB02135B09642101FB03F3D31ADB0052
:102830003233084AA2FB03235B0903F00702D7F8EF
:10284000F4301B6822449A6006E100BF001001408A
:10285000001401401F85EB51D7F8FC300022C7F867
:10286000A030C7F8A420D7E9288942464B469118E2
:1028700039625B417B62D7E90823414654184946D7
:1028800043EB01054FF000024FF00003EB0043EA79
:102890005473E20014461D464346E318C7F89830C7
:1028A0004B4645EB0303C7F89C30D7F8F4305B6820
:1028B0000022C7F89030C7F894204FF000024FF084
:1028C0000003D7E9244529468B00214643EA91734A
:1028D00021468A00D7E92601FDF7D2FC02460B46C5
:1028E000604BA3FB02235B091C01D7F8FC300022DC
:1028F000C7F88830C7F88C20D7E9228942464B4672
:102900009118B9615B41FB61D7E906234146511833
:10291000396149464B417B614FF000024FF00003A3
:10292000D7E904AB5946CB00514643EA51735146AF
:10293000CA0010461946034642469B18C7F8803025
:102940004B460A4642EB0303C7F88430D7F8F4300D
:102950005B680022BB67FA674FF000024FF000038C
:10296000D7E91E8949468B00414643EA91734146A7
:102970008A00D7E92001FDF783FC02460B46114689
:10298000384BA3FB01235B09642202FB03F3CB1A40
:102990001B013233334AA2FB03235B0903F0F0032C
:1029A0001C44D7F8FC3000223B677A67D7E91C89C2
:1029B00042464B469118B9605B41FB60D7E9022360
:1029C00041465118396049464B417B604FF0000247
:1029D0004FF00003D7E900AB5946CB00514643EA1C
:1029E00051735146CA0010461946034642469B1889
:1029F000BB664B460A4642EB0303FB66D7F8F4304E
:102A00005B6800223B667A664FF000024FF00003DD
:102A1000D7E9188949468B00414643EA91734146FC
:102A20008A00D7E91A01FDF72BFC02460B460D4B35
:102A3000A3FB02135B09642101FB03F3D31A1B01FF
:102A40003233084AA2FB03235B0903F00F02D7F8D5
:102A5000F4301B6822449A6000BF07F58077BD46BA
:102A6000BDE8B08F1F85EB510EB410B59DB01FAB04
:102A7000029006906FF000410A48079104910A49BC
:102A800053F8042B0591002402A9006801931B94BC
:102A900000F094F9029B1C701DB0BDE8104003B01B
:102AA000704700BF0C0000200802FFFF02440346ED
:102AB000934200D1704703F8011BF9E7014B1868F6
:102AC000704700BF0C00002070B50D4D0D4C641B0D
:102AD000A4100026A64209D10B4D0C4C00F064FC5A
:102AE000641BA4100026A64205D170BD55F8043B16
:102AF00098470136EEE755F8043B98470136F2E770
:102B00002834000828340008283400082C34000831
:102B10007047704738B50546002941D051F8043C4C
:102B20000C1F002BB8BFE41800F0E0F81D4A136832
:102B300033B9636014602846BDE8384000F0DCB863
:102B4000A34208D9206821188B4201BF19685B682D
:102B500009182160EDE71A465B680BB1A342FAD968
:102B600011685018A0420BD12068014450188342CC
:102B70001160E0D118685B68536008441060DAE7C0
:102B800002D90C232B60D6E7206821188B4204BFA2
:102B900019685B68636004BF091821605460CAE764
:102BA00038BD00BF5402002070B50F4E0C4631688E
:102BB000054611B900F0A4FB30602146284600F01C
:102BC0009FFB431C03D14FF0FF34204670BDC41C53
:102BD00024F00304A042F8D0211A284600F090FB0C
:102BE0000130F2D1EFE700BF500200202DE9F84399
:102BF000CD1C25F0030508350C2D38BF0C25002D04
:102C0000064601DBA94204D90C2333600020BDE84D
:102C1000F883DFF8D48000F069F8D8F800301C465B
:102C200044BB29463046FFF7BFFF431C044658D13A
:102C3000D8F800402746002F43D1002C4BD0236802
:102C40003946304604EB030900F05AFB814542D176
:102C500021686D1A29463046FFF7A6FF01303AD0A9
:102C600023682B442360D8F800305A6862BBC8F848
:102C700000700FE02268521B20D40B2A17D961196B
:102C8000A342256018BF5960636808BFC8F80010E8
:102C900062514B60304600F02FF804F10B00231D09
:102CA00020F00700C21A1CBF1B1AA350AFE76268CE
:102CB000A3420CBFC8F800205A60EBE723466468C3
:102CC000AEE73C467F68B6E71A465B68A342FBD195
:102CD00000235360DEE70C233360304600F00CF82D
:102CE00094E70560D6E700BF540200200148FFF7D3
:102CF0000FBF00BF4C0200200148FFF70ABF00BF12
:102D00004C0200202DE9F0478E681F46BE420B683A
:102D100082460C4690462DD8B1F90C2012F4906FE3
:102D200026D06569096905EB4505A3EB010905EBAB
:102D3000D5757B1C4B446D109D4238BF1D46530515
:102D400027D52946FFF752FF064660B321694A4658
:102D500000F0E6FAA38923F4906343F08003A38193
:102D6000266165614E44A5EB09052660A5603E46D7
:102D7000BE4200D93E4620683246414600F0A6FADF
:102D8000A3689B1BA3602368334423600020BDE835
:102D9000F0872A4600F0D2FA06460028E0D12169E1
:102DA0005046FFF7B7FE0C23CAF80030A38943F062
:102DB0004003A3814FF0FF30E9E700002DE9F04F19
:102DC00098468B891B069DB007460D46144610D5C4
:102DD0000B6973B94021FFF709FF2860286130B9FA
:102DE0000C233B604FF0FF301DB0BDE8F08F402357
:102DF0006B610023099320238DF82930CDF80C80D6
:102E00003023DFF89C818DF82A304FF001092346EA
:102E10009A4613F8012B0AB1252AF9D1BAEB040B13
:102E20000BD05B46224629463846FFF76BFF013040
:102E300000F0A780099A5A4409929AF80030002BB2
:102E400000F09F8000234FF0FF32CDE905230AF107
:102E5000010A049307938DF853301A9354460522C0
:102E600014F8011B4E48FDF7BBF9049AD8B9D006F7
:102E700044BF20238DF85330110744BF2B238DF816
:102E800053309AF800302A2B15D0079A5446002068
:102E90004FF00A0C214611F8013B303B092B4BD96E
:102EA000B0B1079214E0A0EB080309FA03F313434F
:102EB0000493A246D2E7039B191D1B680391002BC4
:102EC000BBBF5B4242F0020207930793B8BF049274
:102ED00023782E2B0AD163782A2B32D1039B1A1D1B
:102EE0001B68039243EAE37302340593DFF8C0A042
:102EF000217803225046FDF773F938B1049BA0EB0B
:102F00000A004022824013430134049314F8011B49
:102F100024488DF828100622FDF762F9002836D0E3
:102F2000214B1BBB039B073323F007030833039399
:102F3000099B334409936AE70CFB02320C460120DB
:102F4000A8E700230134059319464FF00A0C2046E8
:102F500010F8012B303A092A03D9002BC6D005916D
:102F6000C4E70CFB012104460123F0E703AB009307
:102F70002A460E4B04A93846AFF30080421C064691
:102F8000D6D1AB895B063FF52DAF09982CE703AB93
:102F900000932A46054B04A9384600F079F8EDE77E
:102FA000EC330008F633000800000000052D00088F
:102FB000F23300082DE9F047164698468A680B69F7
:102FC000DDF820909342B8BF1346336091F8432058
:102FD00007460C460AB1013333602368990642BFA5
:102FE000336802333360256815F0060506D104F115
:102FF000190AE36832689B1AAB4226DC94F8433026
:103000002268003B18BF012392062BD404F143022F
:1030100041463846C84701301ED02368226903F074
:103020000603042B02BFE5683368ED1AA3680CBFE2
:1030300025EAE57500259342C4BF9B1AED180026CA
:103040001A34B5421AD1002008E001235246414605
:103050003846C847013003D14FF0FF30BDE8F08754
:103060000135C6E7E1185A1C302081F8430022449C
:1030700094F8451082F843100233C7E70123224633
:1030800041463846C8470130E6D00136D9E700004E
:103090002DE9FF470F7E0C9E782F914680460C4607
:1030A0009A4601F1430207D8622F0AD8002F00F098
:1030B000D180582F00F0B88004F1420684F84270A5
:1030C0003AE0A7F16303152BF6D801A151F823F0DC
:1030D000293100083D310008B9300008B930000836
:1030E000B9300008B93000083D310008B930000897
:1030F000B9300008B9300008B93000083B32000888
:1031000067310008F5310008B9300008B93000080F
:103110005D320008B930000867310008B930000896
:10312000B9300008FD31000833681A1D1B68326091
:1031300004F1420684F8423001239CE033682068A1
:10314000191D3160060601D51D6803E04506FBD553
:10315000B3F90050002D03DA2D236D4284F843307B
:1031600058480A2311E021683368080653F8045BC5
:1031700002D4490648BFADB26F2F5248336014BF26
:103180000A230823002184F843106668A660002EF5
:1031900005DB21682E4321F0040121604BD0164647
:1031A000B5FBF3F103FB1157C75D06F8017D2F4610
:1031B000BB420D46F4D9082B0BD12368DF0708D595
:1031C000236961689942DEBF302306F8013C06F1AD
:1031D000FF36921B2261CDF800A04B4603AA214680
:1031E0004046FFF7E7FE01304AD14FF0FF3004B010
:1031F000BDE8F087236843F0200323603248782736
:1032000084F84570236831681F0651F8045B02D4C6
:103210005F0648BFADB23160D90744BF43F0200319
:1032200023601DB11023ADE72648E9E7236823F0AA
:1032300020032360F6E71646BDE733682568616919
:10324000181D30602E061B6801D5196002E0680663
:10325000FBD51980002323611646BCE733681A1D8D
:1032600032601E68626800213046FCF7B9FF08B181
:10327000801B606063682361002384F84330AAE701
:103280002369324649464046D0470130ADD02368D5
:103290009B0713D4E068039B9842B8BF1846A6E783
:1032A0000123324649464046D04701309DD0013582
:1032B000E36803995B1AAB42F2DCEBE7002504F10B
:1032C0001906F5E7FD3300080E340008884210B5F2
:1032D00001EB020402D98442234607D8431EA142CF
:1032E00008D011F8012B03F8012FF8E7024401463A
:1032F0008A4200D110BD13F8014D02F8014DF7E7E5
:1033000038B5064D0023044608462B60FDF7A4FBA4
:10331000431C02D12B6803B1236038BD4802002052
:103320000A44914200F1FF3300D1704710B511F803
:10333000014B03F8014F9142F9D110BD2DE9F04145
:10334000074614460D4621B9BDE8F0411146FFF786
:103350004DBC2AB9FFF7DEFB25462846BDE8F081C3
:1033600000F01AF88442064602D8B4EB500FF4D8A5
:1033700021463846FFF73AFC804608B94546ECE757
:10338000B4422246294628BF3246FFF7C9FF2946E4
:103390003846FFF7BFFBF1E751F8043C181F002B3C
:1033A000BCBF0B58C0187047F8B500BFF8BC08BCCC
:1033B0009E467047F8B500BFF8BC08BC9E467047F3
:1033C00047696120747269204144433A20256C7535
:1033D0000D0A0000000000000000000001020304CC
:1033E000060708090000000001020304232D302B0A
:1033F0002000686C4C0065666745464700303132F6
:10340000333435363738394142434445460030314C
:1034100032333435363738396162636465660000AB
:08342000B0CDFF7F01000000A8
:04342800B5010008E2
:04342C009101000802
:103430000024F40010000000010000001000002033
:10344000000000001001002078010020E0010020B1
:10345000000000000000000000000000000000006C
:10346000000000000000000000000000000000005C
:10347000000000000000000000000000000000004C
:0C34800000000000000000000000000040
:0400000508000AE9FC
:00000001FF
