:020000040800F2
:10000000D006002041020008250500081D05000853
:1000100021050008F1040008B505000800000000F3
:100020000000000000000000000000002D05000896
:100030001905000800000000290500083105000826
:100040005B0200085B0200085B0200085B0200081C
:100050005B0200085B0200085B0200085B0200080C
:100060005B0200085B0200085B0200085B020008FC
:100070005B0200085B0200085B0200085B020008EC
:100080005B0200085B0200085B0200085B020008DC
:100090005B0200085B0200085B0200085B020008CC
:1000A0005B0200085B0200085B0200085B020008BC
:1000B0005B0200085B0200085B0200085B020008AC
:1000C0005B0200085B0200085B0200085B0200089C
:1000D0005B0200085B0200085B0200085B0200088C
:1000E0005B0200085B0200085B0200085B0200087C
:1000F0005B0200085B0200085B0200085B0200086C
:100100005B0200085B0200085B0200085B0200085B
:100110005B0200085B0200085B0200085B0200084B
:10012000F50400085B0200085B0200085B0200089F
:100130005B02000800000000000000005B020008F5
:100140005B0200085B0200085B0200085B0200081B
:100150005B0200085B0200085B0200085B0200080B
:100160005B0200085B0200085B0200085B020008FB
:100170005B0200085B0200080000000000000000B5
:100180005B0200085B02000800F002F800F049F88A
:1001900014A696E8000CB244B344DA4501D100F04D
:1001A00040F8BAE80F000FA696E83000A5EB04056A
:1001B00004EB0607AAEB0704A7F101074FEA1515A0
:1001C0004FEA3414A4F10104AC4201D300F029F841
:1001D00013F0010F18BFFB1A43F0010300F001F800
:1001E000DBE71847D00A0000E00A00007047000073
:1001F0000023002400250026103A28BF78C1FBD830
:10020000520728BF30C148BF0B607047752900F006
:100210007F80002070471FB500F03BFD1FBD10B56B
:1002200010BD00F02AF91146FFF7F5FF00F0C4F900
:1002300000F048F903B4FFF7F2FF03BC00F050F9F7
:100240000948804709480047FEE7FEE7FEE7FEE76A
:10025000FEE7FEE7FEE7FEE7FEE7FEE704480549A6
:10026000054A064B70470000A105000889010008F7
:10027000D0000020D0060020D0020020D0020020B4
:100280000FB41CB5074B06AA7B446946009005983D
:1002900000F0DBF80020694600F0EAF81CBC5DF8CD
:1002A00014FB0000E50100002DE9F0410E46044674
:1002B000002020622046E168884730B3252805D019
:1002C000D4E901219047206A401CF2E7E16820460A
:1002D00000278847050018D0A5F14100192802D849
:1002E00020354FF400673246294620462760FFF745
:1002F0008DFF40B1012804D0F61D26F00706083610
:10030000D8E7361DD6E72846DAE7206ABDE8F0814F
:100310002DE9F0410646002410687529314616A5DE
:1003200010D0AFF30080002802DA404213A507E0A6
:1003300031688A0701D512A502E0490704D511A545
:10034000012401E0AFF3008000210A2206F1240716
:1003500009E0B0FBF2FCB0FBF2F302FB1C00303012
:1003600078541846491C0028F3D123462A463046C3
:10037000BDE8F04100F00BB8000000002D000000C7
:100380002B000000200000007047704770472DE9E7
:10039000F0470D4699469246044600F1240801684C
:1003A000880604D5E06921F01001216000E00120F9
:1003B000A84201DD471B00E00027A1697A1902EB82
:1003C0000900081AA0612078C00602D42046AFF3C5
:1003D0000080002608E0D4E901211AF806009047C1
:1003E000206A401C761C20624E45F4DB2078C00653
:1003F0000AD52046AFF3008006E0D4E90121302081
:100400009047206A401C2062381EA7F10107F4DCE7
:1004100007E0D4E9012118F805009047206A401C44
:100420002062281EA5F10105F3DC2046AFF3008011
:100430002078000602D50220BDE8F0870120FBE706
:1004400001694A1C02610878704700B58FB0CDE998
:1004500001310021059105497944CDE90310114688
:100460006846FFF721FF0FB000BD0000E5FFFFFF6A
:100470000A6802F8010B0A607047754600F02CF814
:10048000AE4605006946534620F00700854618B081
:1004900020B5FFF7E3FEBDE820404FF000064FF027
:1004A00000074FF000084FF0000BAC46ACE8C00965
:1004B000ACE8C009ACE8C009ACE8C00921F007010C
:1004C0008D46704710B50446AFF300802046BDE866
:1004D0001040FFF7AFBE000000487047000000204A
:1004E00001491820ABBEFEE726000200704700005D
:1004F000FEE7000046F20040C4F2020001688906EF
:1005000058BF70472021816040F26000C2F20000B5
:10051000012101707047000070470000FEE70000F5
:10052000FEE70000FEE70000704700007047000093
:1005300040F26000C2F20000416801314160416850
:10054000642938BF704780B586B000214160428879
:1005500040F6AC41C0F6000101A8FFF791FE9DF8FE
:100560000400C8B141F2000201A9C4F2010204E092
:1005700011F8013F5060184673B113681B06F7D499
:1005800013681B065CBF13685FEA0363F0D413684B
:100590001B06F2D5ECE700BF06B0BDE8804070470F
:1005A0004EF68850CEF20000016841F470010160FF
:1005B00070470000FEE7000081B043F60803C4F274
:1005C000020353F8080C40F0010043F8080C53F8FC
:1005D000080C80070CD453F8080C80075CBF53F854
:1005E000080C5FEA807003D453F8080C8007EED53E
:1005F000986B40F08050986347F20000C4F200000E
:10060000016841F48041016018681860186840F47E
:1006100000401860186840F4A050186045F210407F
:1006200043F8040C53F8040C20F4800043F8040C45
:1006300053F8080C40F0807043F8080C53F8080C8D
:1006400080010CD453F8080C80015CBF53F8080CEF
:100650005FEA801003D453F8080C8001EED540F215
:100660000570C3F8F803186820F0030018601868D4
:1006700040F00200186000BF186800F00C00082865
:100680000ED0186800F00C00082809D0186800F097
:100690000C00082804D0186800F00C000828EBD1E2
:1006A000986A40F6000C40F00400C4F2020C986214
:1006B000DCF8001040F6180041F03001C4F20200EE
:1006C000CCF8001050F80C1C46F2104221F030011A
:1006D00040F80C1C996AC4F2020241F4800199624C
:1006E000116821F0010111601168C90709D0116872
:1006F000C9071CBF11685FEAC17102D01168C90740
:10070000F2D1116842F2080EC4F2010E21F06061CC
:1007100011600EF14401916040F26001C2F20001EB
:1007200001F10804D46032245460146844F40034A5
:100730001460146844F400541460146844F40064B1
:100740001460146844F480641460146844F4807481
:100750001460146844F010041460146844F0010438
:100760001460DA6B002442F48072DA635EF8042CC1
:1007700042F480724EF8042CDEF8002042F00202AF
:10078000CEF80020DEF8002042F48072CEF800207F
:10079000DEF8002042F40072CEF80020DEF82420BB
:1007A00022F47002CEF824200C22CEF82C20DEF8A1
:1007B000042042F4E072CEF80420DEF8002042F07B
:1007C0000102CEF800200094009D42F20F72954283
:1007D0001AD842F2107500BF009E01360096009EA6
:1007E000964211D8009E01360096009E96420BD884
:1007F000009E01360096009E964205D8009E013666
:100800000096009EAE42E7D34EF21005CEF20005F0
:10081000102285F828244FF08072C5F8F4209A6AD7
:10082000F02742F001029A624FF60002CFF6FF7203
:100830005CF8026026F480264CF802605CF80260E6
:1008400046F400264CF802604FF60802CFF6FF721D
:100850005CF8026046F440264CF802604FF6240231
:10086000CFF6FF725CF8026026F0F0064CF80260EA
:100870005CF8026046F070064CF80260DE6B41F2F4
:10088000000246F01006C4F20102DE63D66846F0AC
:100890000806D66040F2D9269660D66846F400561F
:1008A000D66049F23F06C0F202066E604EF623564D
:1008B000CEF200063770AC6007242C609C6A44F0CE
:1008C00004049C62DCF8003043F08063CCF8003014
:1008D000DCF8003023F00063CCF8003050F8143C12
:1008E00023F4005340F8143C50F8103C23F04063CC
:1008F00040F8103CDEF8003043F08043CEF8003082
:1009000013681B0609D413681B065CBF13685FEAF3
:10091000036302D413681B06F2D54823536013689F
:100920001B0609D413681B065CBF13685FEA0363E8
:1009300002D413681B06F2D56523536013681B06A7
:1009400009D413681B065CBF13685FEA036302D413
:1009500013681B06F2D56C23536013681B0609D479
:1009600013681B065CBF13685FEA036302D4136855
:100970001B06F2D56C23536013681B0609D4136859
:100980001B065CBF13685FEA036302D413681B068F
:10099000F2D56F23536013681B0609D413681B0636
:1009A0005CBF13685FEA036302D413681B06F2D5C9
:1009B0002123536013681B0609D413681B065CBF10
:1009C00013685FEA036302D413681B06F2D50D2394
:1009D000536013681B0609D413681B065CBF1368B9
:1009E0005FEA036302D413681B06F2D50A2353603F
:1009F00013681B0609D413681B065CBF13685FEA03
:100A0000036302D413681B06F2D5542353601368A2
:100A10001B0609D413681B065CBF13685FEA0363F7
:100A200002D413681B06F2D56523536013681B06B6
:100A300009D413681B065CBF13685FEA036302D422
:100A400013681B06F2D57323536013681B0609D481
:100A500013681B065CBF13685FEA036302D4136864
:100A60001B06F2D57423536013681B0609D4136860
:100A70001B065CBF13685FEA036302D413681B069E
:100A8000F2D56923536013681B0609D413681B064B
:100A90005CBF13685FEA036302D413681B06F2D5D8
:100AA0006E23536013681B0609D413681B065CBFD2
:100AB00013685FEA036302D413681B06F2D5672349
:100AC000536013681B0609D413681B065CBF1368C8
:100AD0005FEA036302D413681B06F2D52E2353602A
:100AE00013681B0609D413681B065CBF13685FEA12
:100AF000036302D413681B06F2D52E2353601368D8
:100B00001B0609D413681B065CBF13685FEA036306
:100B100002D413681B06F2D52E23536013681B06FC
:100B200009D413681B065CBF13685FEA036302D431
:100B300013681B06F2D50D23536013681B0609D4F6
:100B400013681B065CBF13685FEA036302D4136873
:100B50001B06F2D50A2353600A894B89CF891A44B0
:100B60008B8900251A440B8A3A444F8A1A448B8A8F
:100B70003A44CF8A1A440B8B3A444F8B1A448B8BDE
:100B80003A44CF8B1A440B8C3A444F8C1A448B8CCA
:100B90003A44CF8C1A440B8D3A444F8D1A448B8DB6
:100BA0003A44CF8D1A440B8E3A444F8E1A448B8EA2
:100BB0003A44CF8E1A440B8F3A444F8F1A448B8F8E
:100BC0003A44CF8F1A44B1F840303A44B1F84270F9
:100BD0001A44B1F844303A44B1F846701A44B1F8B6
:100BE00048303A44B1F84A701A44B1F84C303A44AB
:100BF000B1F84E701A44B1F850303A44B1F852701E
:100C00001A44B1F854303A44B1F856701A44B1F865
:100C100058303A44B1F85A701A44B1F85C303A444A
:100C2000B1F85E701A44B1F860303A44B1F86270BD
:100C30001A44B1F864303A44B1F866701A44B1F815
:100C400068303A44B1F86A701A4448F21F533A4483
:100C5000C5F2EB13A2FB03231A094FF4005300BFA4
:100C600003600F78012F04BF0D704A8003600F7876
:100C7000012F04BF0D704A8003600F78012F04BF5D
:100C80000D704A8003600F78012F04BF0D704A80F9
:100C9000E6E7F1EE100A4FF6FF71C0F2C03120EA2C
:100CA000010040F04070E1EE100A704725750D0A12
:100CB00000000000C40C000800000020D006000066
:040CC000F001000837
:040000050800018965
:00000001FF
