:020000040800F2
:10000000600600203902000841020008430200088F
:1000100045020008470200084902000800000000ED
:100020000000000000000000000000004B0200087B
:100030004D020008000000004F02000851020008B5
:10004000530200085302000853020008530200083C
:10005000530200085302000853020008530200082C
:10006000530200085302000853020008530200081C
:10007000530200085302000853020008530200080C
:1000800053020008530200085302000853020008FC
:1000900053020008530200085302000853020008EC
:1000A00053020008530200085302000853020008DC
:1000B00053020008530200085302000853020008CC
:1000C00053020008530200085302000853020008BC
:1000D00053020008530200085302000853020008AC
:1000E000530200085302000853020008530200089C
:1000F000530200085302000853020008530200088C
:10010000530200085302000853020008530200087B
:10011000530200085302000853020008530200086B
:10012000530200085302000853020008530200085B
:100130005302000800000000000000005302000805
:10014000530200085302000853020008530200083B
:10015000530200085302000853020008530200082B
:10016000530200085302000853020008530200081B
:1001700053020008530200080000000000000000C5
:10018000530200085302000800F002F800F044F89F
:1001900014A696E8000CB244B344DA4501D100F04D
:1001A0003BF8BAE80F000FA696E83000A5EB04056F
:1001B00004EB0607AAEB0704A7F101074FEA1515A0
:1001C0004FEA3414A4F10104AC4201D300F024F846
:1001D00013F0010F18BFFB1A43F0010300F001F800
:1001E000DBE71847380200004802000070470000B3
:1001F0000023002400250026103A28BF78C1FBD830
:10020000520728BF30C148BF0B6070471FB500F0D0
:10021000F7F81FBD10B510BD00F031F81146FFF71B
:10022000F5FF00F0D5F800F04FF803B4FFF7F2FF48
:1002300003BC00F057F80000094880470948004710
:10024000FEE7FEE7FEE7FEE7FEE7FEE7FEE7FEE786
:10025000FEE7FEE704480549054A064B70470000E3
:10026000F5020008890100086000002060060020F7
:10027000600200206002002070477047704775469A
:1002800000F02CF8AE4605006946534620F0070002
:10029000854618B020B5FFF7DDFFBDE820404FF0E0
:1002A00000064FF000074FF000084FF0000BAC467F
:1002B000ACE8C009ACE8C009ACE8C009ACE8C009CA
:1002C00021F007018D46704710B50446AFF300805A
:1002D0002046BDE81040FFF7A8BF00000048704767
:1002E0000000002001491820ABBEFEE726000200F6
:1002F000704700004EF68851CEF20001086840F4C5
:10030000700008607047000082B0019000200090EB
:10031000FFE7009801994FF47A625143884206D270
:10032000FFE700BFFFE7009801300090F1E702B05F
:100330007047000081B00090009840F60001C4F2C0
:100340000201884209D1FFE743F63001C4F20201FD
:10035000086840F004000860FFE743F63000C4F28C
:100360000200006801B0704780B582B001908DF83E
:1003700003100198FFF7DEFF019801689DF8030064
:100380004300032000FA03F221EA0202012101FAEC
:1003900003F31A43019B1A609DF8032001FA02F34C
:1003A000019A5168994351609DF80310490000FA81
:1003B00001F3019A9168194391609DF80310490077
:1003C00000FA01F20199C8689043C86002B080BD8C
:1003D00080B582B00020019040F60000C4F2020017
:1003E0000D21FFF7C1FFFFE740F61401C4F202013F
:1003F000086880F400500860C820FFF785FFF3E725
:10040000F1EE100A4FF6FF71C0F2C03120EA010090
:1004100040F04070E1EE100A704700002C04000824
:0C0420000000002060060000F001000851
:0400000508000239B4
:00000001FF
