:020000040800F2
:10000000D0060020550200085D0200085F020008CB
:100010006102000863020008650200080000000099
:10002000000000000000000000000000670200085F
:1000300069020008000000006B02000811030008BC
:100040006F0200086F0200086F0200086F020008CC
:100050006F0200086F0200086F0200086F020008BC
:100060006F0200086F0200086F0200086F020008AC
:100070006F0200086F0200086F0200086F0200089C
:100080006F0200086F0200086F0200086F0200088C
:100090006F0200086F0200086F0200086F0200087C
:1000A0006F0200086F0200086F0200086F0200086C
:1000B0006F0200086F0200086F0200086F0200085C
:1000C0006F0200086F0200086F0200086F0200084C
:1000D0006F0200086F0200086F0200086F0200083C
:1000E0006F0200086F0200086F0200086F0200082C
:1000F0006F0200086F0200086F0200086F0200081C
:100100006F0200086F0200086F0200086F0200080B
:100110006F0200086F0200086F0200086F020008FB
:100120006F0200086F0200086F0200086F020008EB
:100130006F02000800000000000000006F020008CD
:100140006F0200086F0200086F0200086F020008CB
:100150006F0200086F0200086F0200086F020008BB
:100160006F0200086F0200086F0200086F020008AB
:100170006F0200086F02000800000000000000008D
:100180006F0200086F02000800F002F800F052F859
:1001900014A696E8000CB244B344DA4501D100F04D
:1001A00049F8BAE80F000FA696E83000A5EB040561
:1001B00004EB0607AAEB0704A7F101074FEA1515A0
:1001C0004FEA3414A4F10104AC4201D300F032F838
:1001D00013F0010F18BFFB1A43F0010300F001F800
:1001E000DBE71847D0040000F0040000103A24BFF9
:1001F00078C878C1FAD8520724BF30C830C144BF8C
:1002000004680C6070470000704700000023002461
:1002100000250026103A28BF78C1FBD8520728BF16
:1002200030C148BF0B6070471FB500F036FA1FBDE4
:1002300010B510BD00F031F81146FFF7F5FF00F0E2
:10024000C3F900F04FF803B4FFF7F2FF03BC00F06E
:1002500057F800000948804709480047FEE7FEE7D5
:10026000FEE7FEE7FEE7FEE7FEE7FEE7FEE7FEE766
:1002700004480549054A064B704700002103000861
:1002800089010008D0000020D0060020D002002004
:10029000D0020020704770477047754600F02CF878
:1002A000AE4605006946534620F00700854618B063
:1002B00020B5FFF7DDFFBDE820404FF000064FF00E
:1002C00000074FF000084FF0000BAC46ACE8C00947
:1002D000ACE8C009ACE8C009ACE8C00921F00701EE
:1002E0008D46704710B50446AFF300802046BDE848
:1002F0001040FFF7A8BF000000487047080000202A
:1003000001491820ABBEFEE726000200704700003E
:1003100040F2CC01C2F20001086801300860704769
:100320004EF68851CEF20001086840F47000086073
:100330007047000082B08DF8070000919DF907001A
:1003400000280AD4FFE7009800019DF907104EF23B
:100350000042CEF2000288540BE0009800019DF8A4
:10036000071001F00F014EF61452CEF2000288542D
:10037000FFE702B07047000042F20431C4F201010D
:100380000020086042F20402C4F201021060116809
:1003900021F04071116042F20801C4F201010860CD
:1003A0000A6842F002020A600A6842F480720A6037
:1003B0000A6842F400720A600A6822F400620A6065
:1003C00042F21003C4F201031A6842F007021A60F5
:1003D00042F22C02C4F20102106042F23402C4F272
:1003E00001021060086840F00100086070470000DA
:1003F00042F20801C4F20101086840F08040086040
:100400007047000043F60041C4F2020140F202705E
:10041000086043F60001C4F20201086840F00100E0
:100420000860FFE743F60000C4F20200006880079E
:10043000002801D4FFE7F5E743F60401C4F2020106
:1004400045F21040C0F2007008600868012262F3B3
:100450001140086043F60001C4F20201086840F050
:1004600080700860FFE743F60000C4F202000068F5
:100470008001002801D4FFE7F5E743F60801C4F244
:1004800002014FF4805008600868022262F3010004
:100490000860FFE743F60800C4F20200006800F0BD
:1004A0000C00082801D0FFE7F4E740F20001C2F297
:1004B00000014BF60050C0F2015008607047000088
:1004C00082B00190009146F21041C4F20201086826
:1004D00020F001000860FFE746F21040C4F202007D
:1004E0000068C00708B1FFE7F6E746F21841C4F21A
:1004F000020142F24C00C4F201000860019846F289
:100500001C41C4F202010860009846F21441C4F292
:100510000201086046F21041C4F2020100200860A6
:10052000086820F060600860086820F0C00008607B
:10053000086840F480700860086840F480600860D3
:10054000086820F400700860086840F400600860E3
:10055000086840F400500860086840F40030086003
:10056000086840F00100086002B0704782B0019056
:100570008DF803109DF803004100032000FA01F3F9
:10058000019A1168194311609DF80310490000FA9F
:1005900001F20199C8689043C86002B0704700003A
:1005A00080B582B00190019800F044F80146012026
:1005B00000FA01F243F63000C4F202000168114370
:1005C0000160006802B080BD80B584B00020029058
:1005D0000390FFF717FF40F20000C2F2000000682E
:1005E00000F032F80020C4F202000190FFF7D8FFBB
:1005F00001980299FFF7BAFF43F63001C4F20201F5
:10060000086840F48000086040F26800C2F2000010
:100610003221FFF755FF43F64401C4F20201086896
:1006200040F480700860FFF7A7FEFFF7E1FEFFE7E8
:10063000FEE7000081B0009000980021CBF6FE712B
:100640000844800A01B0704780B582B0019040F242
:10065000CC00C2F2000000210160019844F6D352A0
:10066000C1F26202A0FB02024FF0FF3000EB9212D7
:100670004EF21403CEF200031A604EF21802CEF2CC
:10068000000211604EF21002CEF20002072111604A
:100690000F21FFF74FFE02B080BDF1EE100A4FF6BA
:1006A000FF71C0F2C03120EA010040F04070E1EE7D
:1006B000100A7047D4060008000000200400000063
:1006C000EC010008D806000808000020C806000059
:0806D0000C0200080024F400F4
:040000050800025598
:00000001FF
